:10000000E2C000000AC1000008C1000006C10000F3
:1000100004C1000002C1000000C10000FEC00000D9
:10002000FCC00000FAC000000C94F70D0C94740E94
:10003000F4C00000F2C00000F0C00000EEC00000FC
:10004000ECC00000EAC00000E8C00000E6C000000C
:10005000E4C00000E2C00000E0C000000C94560DB7
:10006000DCC000000C94850A0C94B00A0C94E10AE0
:10007000D4C00000D2C00000D0C00000CEC000003C
:10008000CCC00000CAC00000C8C00000C6C000004C
:10009000C4C00000C2C000000129022904290829A7
:1000A0001029202940298029012C022C0126022612
:1000B000042608261026202640268026402C802C48
:1000C0000123022304230823102320234023802319
:1000D0000120022004200820102020204020802021
:1000E000102C202C012F022F042F082F102F202F2F
:1000F000402F802F00010000A501120002000062C5
:100100000143000300005E010401030904440118D7
:10011000020309042C0116030309041E010C0C033D
:100120003100320033003400350000001603550062
:100130005300420020005300650072006900610016
:100140006C00000018035400650065006E00730029
:1001500079006400750069006E006F000000040300
:10016000090409024300020100C032090400000131
:1001700002020100052400100105240100010424ED
:100180000206052406000107058203080040090451
:100190000100020A000000070503024000000705F5
:1001A00084024000001201000202000020C01683F9
:1001B000047202010203010001C1020180360181C3
:1001C0003600FF0A5C1211241FBECFEFD0E2DEBF63
:1001D000CDBF12E0A0E0B1E0EAEEF6E200E00BBF36
:1001E00002C007900D92A638B107D9F723E0A6E820
:1001F000B2E001C01D92AB31B207E1F710E0C3EEEF
:10020000D0E004C02197FE010E94AD12C13ED1078B
:10021000C9F70E94DA0B0C947313F2CECF93DF93DD
:100220001F92CDB7DEB76983DC01ED91FC910280AE
:10023000F381E02D41E050E0BE016F5F7F4F0995F3
:100240000F90DF91CF910895813029F410928D02A3
:1002500080918D02089590918D02823021F49195C4
:1002600090938D02F5CF833099F79150F9CFCF93CA
:10027000DF9300D0CDB7DEB72091030330910403A4
:100280002115310511F42EE133E0CE010196821BD8
:10029000930B0F900F90DF91CF9108954FEF61E195
:1002A00070E08EE892E00E94410A44E650E060E08F
:1002B00070E08EE892E00E94740B40E052EC61E046
:1002C00070E081E193E00E945E11569A559A549A2B
:1002D000539A52985A985D985B985A985C9A81E123
:1002E00093E00E9451128823D1F35E9A0895909171
:1002F0008D02980F90938D02682F8EE892E00E94F5
:10030000FB0980E991E00197F1F70895682F81E1F9
:1003100093E084DF80E991E00197F1F781E193E0D8
:100320000E94E30F181619062CF481E193E00E9455
:100330001C10F4CF5E9808958F929F92AF92BF9257
:10034000CF92DF92EF92FF920F931F93CF93DF93A1
:100350004A015B015E9AEC01C12CD12C760100E9C7
:1003600011E0C814D904EA04FB0491F069918EE805
:1003700092E00E94FB09C8010197F1F78EE892E034
:100380000E94DE098FEFC81AD80AE80AF80AE9CFF6
:1003900080E991E00197F1F75E98DF91CF911F918D
:1003A0000F91FF90EF90DF90CF90BF90AF909F9014
:1003B0008F9008955E9A45E050E060E070E086ED31
:1003C00091E0BADF8EE892E0F9D7811180EE0895CE
:1003D000CF92DF92EF92FF9245E050E060E070E054
:1003E0008CED91E0A9DF0FB6F894C0900603D09091
:1003F0000703E0900803F09009030FBE8EE892E037
:10040000AAD718161906B4F00FB6F894809106030F
:1004100090910703A0910803B09109030FBE8C19B6
:100420009D09AE09BF0981319742A105B10530F39D
:100430008FEE03C08EE892E0C1D7FF90EF90DF907F
:10044000CF9008955E9A45E050E060E070E082EE63
:1004500091E072DF8EE892E0B1D781113DC046E0B5
:1004600050E060E070E088EE91E066DF8EE892E0B8
:10047000A5D7811131C046E050E060E070E08FEE1A
:1004800091E05ADF8EE892E099D7811125C046E0CD
:1004900050E060E070E086EF91E04EDF8EE892E0A1
:1004A0008DD7811119C047E050E060E070E08DEF1A
:1004B00091E042DF8EE892E081D781110DC046E0E5
:1004C00050E060E070E08FE392E036DF8EE892E08B
:1004D00075D7811101C07CCF80EE08952F923F9295
:1004E0004F925F926F927F928F929F92AF92BF9244
:1004F000CF92DF92EF92FF920F931F93CF93DF93F0
:10050000CDB7DEB762970FB6F894DEBF0FBECDBF92
:100510000FB6F894C0900603D0900703E09008034C
:10052000F09009030FBE81E193E00E94E30F04976E
:10053000B4F40FB6F8948091060390910703A0914C
:100540000803B09109030FBE8C199D09AE09BF09BC
:1005500081319742A105B10530F38BEE58C08E0171
:100560000F5F1F4F8EE0D8011D928A95E9F744E096
:1005700050E0B80181E193E00E94AF11C9808C2D59
:1005800090E0982F8827CA80C80ED92ED11CF12C54
:10059000E12C3AE0CC0CDD1CEE1CFF1C3A95D1F7A7
:1005A0008B81282F30E0322F22278C81820F932FCE
:1005B000911D0196B0E0A0E04C015D015AE0880C6D
:1005C000991CAA1CBB1C5A95D1F71E01B5E02B0E35
:1005D000311CC814D904EA04FB0408F05EC04D2C99
:1005E0005E2C6F2C7724C701AA27BB278F87988B97
:1005F000A98BBA8B46E050E060E070E086E492E0C0
:100600009BDE8EE892E0DAD68823D1F084EE629603
:100610000FB6F894DEBF0FBECDBFDF91CF911F9113
:100620000F91FF90EF90DF90CF90BF90AF909F9091
:100630008F907F906F905F904F903F902F90089594
:10064000D101EAE01D92EA95E9F785E0E5E0F2E004
:10065000D80101900D928A95E1F74F82FF85F887C6
:1006600085E0EBE0F2E0DE01199601900D928A95AB
:10067000E1F74DE050E060E070E0C8015DDE8EE83B
:1006800092E09CD68111C2CFA3DE8111C0CF3EDEA5
:1006900024E0D20EE11CF11C9CCF80E0B8CF2F9259
:1006A0003F924F925F926F927F928F929F92AF9202
:1006B000BF92CF92DF92EF92FF920F931F93CF934F
:1006C000DF93CDB7DEB762970FB6F894DEBF0FBEEB
:1006D000CDBF0FB6F894C0900603D0900703E0900A
:1006E0000803F09009030FBE81E193E00E94E30F3D
:1006F0000497B4F40FB6F894809106039091070321
:10070000A0910803B09109030FBE8C199D09AE0991
:10071000BF0981319742A105B10530F38BEE87C047
:100720008E010F5F1F4F8EE0D8011D928A95E9F769
:1007300044E050E0B80181E193E00E94AF11C9802C
:100740008C2D90E0982F8827CA80C80ED92ED11CF6
:10075000F12CE12C3AE0CC0CDD1CEE1CFF1C3A9590
:10076000D1F78B81282F30E0322F22278C81820F06
:10077000932F911D0196B0E0A0E04C015D015AE07D
:10078000880C991CAA1CBB1C5A95D1F71E01B5E018
:100790002B0E311CC814D904EA04FB0408F046C02F
:1007A0004D2C5E2C6F2C7724C701AA27BB278F877F
:1007B000988BA98BBA8B46E050E060E070E08DE446
:1007C00092E0BADD8EE892E0F9D5811149C0D101FD
:1007D000EAE01D92EA95E9F785E0E5E0F2E0D8016C
:1007E00001900D928A95E1F74F82FF85F88785E0A9
:1007F000EBE0F2E0DE01199601900D928A95E1F7A7
:100800004DE050E060E070E0C80196DD8EE892E0D7
:10081000D5D5811127C0DCDD882311F08B3139F467
:1008200075DD24E0D20EE11CF11CB4CF80E06296AD
:100830000FB6F894DEBF0FBECDBFDF91CF911F91F1
:100840000F91FF90EF90DF90CF90BF90AF909F906F
:100850008F907F906F905F904F903F902F90089572
:1008600088EEE5CF84EEE3CF1F93CF93DF9300D0E4
:100870001F92CDB7DEB746E050E060E070E084E55F
:1008800092E05ADD8EE892E099D5811155C083E05F
:10089000FE013196DF011D928A95E9F74DE050E0A7
:1008A00060E070E081E192E047DD8EE892E086D57D
:1008B000882349F014EE812F0F900F900F90DF9155
:1008C000CF911F91089584DD182F8111F4CF8EE808
:1008D00092E074D589838EE892E070D58A8346E0F1
:1008E00050E060E070E084E592E026DD8EE892E082
:1008F00065D5811121C04DE050E060E070E08FE1EE
:1009000092E01ADD8EE892E059D58111D3CF60DDF7
:10091000182F8111D0CF8EE892E050D58B8369815A
:1009200081E193E07BDC6A8181E193E077DC6B819C
:1009300081E193E073DCBFCF18EEBDCF5F926F9281
:100940007F928F929F92AF92BF92CF92DF92EF925F
:10095000FF920F931F93CF93DF9300D000D01F928D
:10096000CDB7DEB725E0722E8E010F5F1F4F30EA44
:10097000632E44E1542EF801872D11928A95E9F7F0
:100980005E9A20E43FE140E050E060ED77E080E0F7
:1009900090E0F3D64B0128E030E040E050E061E029
:1009A00070E080E090E0E9D66B015D98862D815083
:1009B0000000E9F78EE892E09DD565E070E080E008
:1009C00090E00E94960D5D9A65E070E080E090E016
:1009D0000E94960D4FEF61E170E08EE892E051D5F4
:1009E00044E650E060E070E08EE892E07DD661E0A1
:1009F00070E080E090E00E94960D85EC78DC81E06C
:100A000076DC10928D0283E072DC8AE970DC80E093
:100A10006EDC84E16CDC82E017DC69DC8EE892E05D
:100A20009AD41816190624F48EE892E0C7D4F6CFAB
:100A300083E05DDC8EE892E0C1D445E050E0B8018F
:100A40008EE892E057D68B81863009F453C080310E
:100A5000C1F08EEE4CDC80E00F900F900F900F9065
:100A60000F90DF91CF911F910F91FF90EF90DF904A
:100A7000CF90BF90AF909F908F907F906F905F903E
:100A80000895C401029738F031F0880F991F880F3C
:100A9000991F0197F1F75C98C601029738F031F081
:100AA000880F991F880F991F0197F1F75C9A8EE8BC
:100AB00092E051D41816190624F48EE892E07ED400
:100AC000F6CF98EEE92E93E0F92EE1E0EE1AF10868
:100AD00009F451CF8EE892E03ED4181619062CF096
:100AE000852D81500000E9F7F0CF8EE892E066D4C2
:100AF0008230B1F765E070E080E090E00E94960DF2
:100B000081E9F5DB61E070E080E090E00E94960D05
:100B100010928D028AE3EBDB8EE4E9DB8FE6E7DB04
:100B200084E7E5DB8AE3E3DB85E5E1DB83E7DFDB25
:100B300085E6DDDB84E6DBDB8AE3D9DB83E084DB8F
:100B4000D6DB61E070E080E090E0F0D783E9CFDBB6
:100B500061E070E080E090E0E9D704E011E087EC2C
:100B6000E82E81E0F82EF80181918F01C0DBE016BC
:100B7000F106C9F761E070E080E090E0D7D783E943
:100B8000B6DB61E070E080E090E0D0D707EC11E0E8
:100B9000F80181918F01ABDBF1E00E3C1F07C1F73B
:100BA00061E070E080E090E0C1D764E98EE892E017
:100BB00022D465E070E080E090E0B8D78EE892E063
:100BC000CAD31816190624F48EE892E0F7D3F6CFAC
:100BD0005E9881E041CF6F927F928F929F92AF9209
:100BE000BF92CF92DF92EF92FF920F931F93CF931A
:100BF000DF9300D000D01F92CDB7DEB7812C912CAF
:100C0000540185E0782ECE0101967C0192E7692E91
:100C100020E9C22EDD24D394F701872D11928A9505
:100C2000E9F769829B82AC8245E050E060E070E0C9
:100C3000C70182DB00E011E08EE892E08CD3892BC3
:100C400021F4C6010197F1F7F7CF8EE892E0B6D311
:100C5000682F81E193E0E2DA0150110969F79FEF13
:100C6000991AA90AB90A81149104E8E0AE06B10400
:100C700099F680E00F900F900F900F900F90DF91FA
:100C8000CF911F910F91FF90EF90DF90CF90BF9089
:100C9000AF909F908F907F906F9008952F923F928A
:100CA0004F925F926F927F928F929F92AF92BF927C
:100CB000CF92DF92EF92FF920F931F93CF93DF9328
:100CC000CDB7DEB72E970FB6F894DEBF0FBECDBFFF
:100CD0000FB6F894C0900603D0900703E090080385
:100CE000F09009030FBE81E193E00E94E30F0497A7
:100CF000B4F40FB6F8948091060390910703A09185
:100D00000803B09109030FBE8C199D09AE09BF09F4
:100D100081319742A105B10530F38BEE7BC08E0186
:100D20000F5F1F4F8EE0F80111928A95E9F744E0BA
:100D300050E0B80181E193E00E94AF118980882DD5
:100D400090E0982F88278A80880E992E911CB12CCC
:100D5000A12C3AE0880C991CAA1CBB1C3A95D1F72F
:100D60004B80842D90E0982F88274C80480E592E78
:100D7000511CFFEF4F1A5F0A712C612C5AE0440C92
:100D8000551C661C771C5A95D1F76EE0362E72E71B
:100D9000272EE0E9CE2EDD24D39484149504A604F6
:100DA000B70450F5F801232D11922A95E9F729820D
:100DB0009B82AC8245E050E060E070E0C801BCDAA4
:100DC000E12CFF24F3948EE892E0C5D2892B21F424
:100DD000C6010197F1F7F7CF8EE892E0EFD2682FC6
:100DE00081E193E01BDA81E0E81AF10861F7EFEFA7
:100DF0009E1AAE0ABE0AD1CF81E193E00E94E30FB2
:100E0000181619062CF481E193E00E941C10F4CF0F
:100E10005E9880E02E960FB6F894DEBF0FBECDBF71
:100E2000DF91CF911F910F91FF90EF90DF90CF90C6
:100E3000BF90AF909F908F907F906F905F904F90FA
:100E40003F902F9008952F923F924F925F926F9212
:100E50007F928F929F92AF92BF92CF92DF92EF924A
:100E6000FF920F931F93CF93DF93CDB7DEB7CD5093
:100E7000D4400FB6F894DEBF0FBECDBF8E010F5F1A
:100E80001B4F8DE0D8011D928A95E9F7FE0131963E
:100E90007F0180E094E0DF01FC011D923197E9F7CA
:100EA0000FB6F8948090060390900703A090080373
:100EB000B09009030FBE81E193E00E94E30F029717
:100EC000B4F40FB6F8948091060390910703A091B3
:100ED0000803B09109030FBE88199909AA09BB0933
:100EE00081319742A105B10530F38BEE7EC08DE0D4
:100EF000D8011D928A95E9F742E050E0B80181E1FE
:100F000093E00E94AF11F801308021805E9A0FB605
:100F1000F894409006035090070360900803709087
:100F200009030FBED12CC12C812C64E0962EC11474
:100F3000F4E0DF0678F50FB6F894809106039091FF
:100F40000703A0910803B09109030FBE8419950906
:100F5000A609B70981329E44A105B10508F064C114
:100F600081E193E00E94E30F5C01009701F38C0D97
:100F70009D1D8130944018F05401AC18BD08B70194
:100F80006C0D7D1DA50181E193E00E94AF11CA0C9B
:100F9000DB1CCDCF45E050E060E070E08DE292E0F8
:100FA000CBD94E0181E0880E981E670150E9A52E2D
:100FB000BB24B394D6016D916D018EE892E01BD2F3
:100FC000C5010197F1F78EE892E0F8D1C814D90471
:100FD00089F78EE892E00AD2C5010197F1F78EE811
:100FE00092E0ECD18823D9F081EEC35FDB4F0FB6DE
:100FF000F894DEBF0FBECDBFDF91CF911F910F914F
:10100000FF90EF90DF90CF90BF90AF909F908F9028
:101010007F906F905F904F903F902F90089545E0A4
:1010200050E060E070E083E392E086D94701BEEFD4
:101030009B1A40E9A42EBB24B394F60161916F0181
:101040008EE892E0D8D1C5010197F1F78EE892E0E1
:10105000B5D1C814D90489F78EE892E0C7D1C5018B
:101060000197F1F78EE892E0A9D1882311F082EE82
:10107000BCCF46E050E060E070E08BE592E05CD9E8
:101080008EE892E09BD1882311F086EEAECF432C00
:10109000512C542C4424420C511C712C612C3AE0EC
:1010A000440C551C661C771C3A95D1F783E0F80177
:1010B0003496DF011D928A95E9F785E0E5E0F2E0DC
:1010C000D80101900D928A95E1F7F8015682678266
:1010D00085E0E9E3F2E0D801189601900D928A9537
:1010E000E1F74DE050E060E070E0C80125D98EE8FE
:1010F00092E064D18111C9CF6BD9811176CF45E0DF
:1011000050E060E070E08DE292E016D95E01FFEF02
:10111000AF1AFDEFBF0A47012DEF921A90E9C92ED1
:10112000DD24D394D5016D915D018EE892E063D109
:10113000C6010197F1F78EE892E040D18A149B0432
:1011400089F78EE892E052D1C6010197F1F78EE857
:1011500092E034D1811148CF45E050E060E070E08A
:1011600083E392E0E9D86E01BFEFCB1ABCEFDB0A54
:101170005701ECEFBE1A80E9E82EFF24F394D60164
:101180006D916D018EE892E036D1C7010197F1F7BC
:101190008EE892E013D1AC14BD0489F78EE892E09A
:1011A00025D1C7010197F1F78EE892E007D18111AF
:1011B0005ECF46E050E060E070E08BE592E0BCD8A6
:1011C0008EE892E0FBD0811160CFB2E05B0E611C33
:1011D000711CF801349683E0DF011D928A95E9F7CE
:1011E00085E0E5E0F2E0D80101900D928A95E1F703
:1011F000F80156826782D801189685E0E9E3F2E0AB
:1012000001900D928A95E1F74DE050E060E070E0CA
:10121000C80192D88EE892E0D1D0811136CFD8D8CB
:101220008111E3CE5E98E1CE8CEEDFCECF93DF93DB
:101230005E9AC1EED1E081E193E0C5D6892B09F435
:1012400087C081E193E0F8D680938A02823080F0F3
:10125000803109F460C0803209F478C0803809F424
:1012600040C090918B02911103C080EE4FD8E3CF24
:10127000863009F44CC028F5823009F444C0C0F42B
:101280008823D9F18130B9F60E9437019093890201
:101290008093880260E081E193E00E940E016091FA
:1012A000890281E193E00E940E016091880226C0CC
:1012B000833059F1843009F0BECF10D980938C026D
:1012C000D5CF803141F138F4873019F18A3009F0F7
:1012D000B2CFCADAF3CF803209F438C0803809F0CF
:1012E000AACF5E9864EF71E080E090E01FD4E091B7
:1012F0008602F091870209959ECF61E081E193E03B
:101300000E940E0198CFCADC96CF65DC94CF9BDD9E
:10131000D5CFC5D9D3CF10928C0280918B02811189
:101320000CC00CDB80938C02882369F08BD88093EF
:101330008C02811105C0D0938B0280918C0296CFD4
:1013400010928B02FACFC0938C02F7CF33D8B6CF6E
:10135000DF91CF9108955091C2024091C102852F33
:1013600090E0242F30E0541718F0821B930B08955F
:10137000805C9F4FFACF5091980240919702252FA1
:1013800030E0842F90E0821B930B541710F0879667
:101390000895019708958091C202E091C1028E17CD
:1013A00051F0EF5FE03408F0E0E0F0E0ED53FD4F86
:1013B000808190E008958FEF9FEF08959091C20291
:1013C0008091C102981779F09091C1029F5F90348B
:1013D00008F090E0E92FF0E0ED53FD4F808190930D
:1013E000C10290E008958FEF9FEF089580919602DB
:1013F0008111FCCF08952091C90023FD06C021E092
:10140000FC01228390E080E008958091CE018F3F1F
:1014100041F080919602811104C0E091CE01F0E08C
:1014200026D29091980280919702981304C08091DF
:10143000C80085FD19C0809198028F5F8832F8F44A
:10144000909197029817E1F3E82FF0E0E756FD4FEF
:10145000608391E090939602809398028091C900F6
:1014600080628093C90008C08FB7F8946093CE0063
:1014700091E0909396028FBF81E090E0089580E024
:10148000DFCF1F93CF93DF93EB01142F4093CE0157
:101490004F3F29F0842FDAD1E12FF0E0EED1C0FFE9
:1014A00024C0C13080E1D80700F582E08093C800F5
:1014B0002197D093CD00C093CC008091C90083FDCB
:1014C00010C01092C2021092C102109298021092A3
:1014D00097021092960286E08093CA0088ED80936E
:1014E000C900DF91CF911F9108951092C800D69541
:1014F000C795DECF809196028111FCCF1092C90072
:101500001092C2021092C10208951F920F920FB65C
:101510000F9211240BB60F922F938F939F93EF93FB
:10152000FF939091CE008091C2028F5F803408F0CB
:1015300080E02091C102281739F0E82FF0E0ED5348
:10154000FD4F90838093C202FF91EF919F918F9105
:101550002F910F900BBE0F900FBE0F901F901895FC
:101560001F920F920FB60F9211240BB60F928F930A
:101570009F93EF93FF939091980280919702981315
:1015800010C08091C9008F7D8093C900FF91EF91B9
:101590009F918F910F900BBE0F900FBE0F901F90D9
:1015A0001895809197028F5F883208F080E0E82FCD
:1015B000F0E0E756FD4F90819093CE008093970224
:1015C000E5CF1F920F920FB60F9211240BB60F9218
:1015D0008F93EF93FF93109296028091CE018F3FED
:1015E00021F0E091CE01F0E048D1FF91EF918F9191
:1015F0000F900BBE0F900FBE0F901F901895EEE846
:10160000F2E0128288EE93E0A0E0B0E0838394835E
:10161000A583B683178286E692E09183808308953E
:10162000CF92DF92EF92FF920F931F93CF93DF93AE
:101630006C01EB017B01E40EF51E10E000E0CE151D
:10164000DF0561F06991D601ED91FC910190F08187
:10165000E02DC6010995080F191FF1CFC801DF91D0
:10166000CF911F910F91FF90EF90DF90CF90089551
:10167000CF92DF92EF92FF92CF93DF93EC010FB600
:10168000F894C0900603D0900703E0900803F09010
:1016900009030FBEE881F9810284F385E02DCE01B4
:1016A000099597FF1AC00FB6F894809106039091A0
:1016B0000703A0910803B09109030FBE8C199D097F
:1016C000AE09BF094B815C816D817E8184179507CE
:1016D000A607B707F8F28FEF9FEFDF91CF91FF904A
:1016E000EF90DF90CF900895FC014383548365838E
:1016F00076830895AF92BF92CF92DF92EF92FF92DE
:101700000F931F93CF93DF935C017B018B01040F39
:10171000151FEB016E01CE18DF08C017D10739F095
:10172000C501A6DF97FF0FC081E0F5018783C601E1
:10173000DF91CF911F910F91FF90EF90DF90CF90AD
:10174000BF90AF9008958993E5CFCF92DF92EF924B
:10175000FF926B017C01C114D104E104F10431F06A
:1017600067D7A7019601DDD66B017C01C701B601E1
:10177000FF90EF90DF90CF900895CF92DF92EF929D
:10178000FF926B017C01C216D306E406F5065CF4F9
:10179000CA01B9016C197D098E099F09D6DFC60EF1
:1017A000D71EE81EF91EC701B601FF90EF90DF902B
:1017B000CF90089525D00E944E0138DDFECF1DBA8E
:1017C000109268001CBC10BE1FBA10927A001092D2
:1017D0006E0010926F0010927000109271001092C3
:1017E000C9001092BC0011B814B817B81AB81DB8C7
:1017F00010BA12B815B818B81BB81EB811BA0895A7
:10180000F894E1E6F0E020E82083108283E084BDD4
:1018100085BDEEE6F0E080818160808391E0909369
:10182000800082E0809381009093B0008093B100AB
:10183000909390008093910086E880937A002093A3
:101840007B0010927E00B1D1789408958E3270F4AE
:10185000E8E9F0E0880FE80FF11D2591E491F0E050
:101860009FB7F8948181822B81839FBF0895EE32C8
:1018700050F4EE0FEC5BF34F0994EE3220F4EE0FD0
:10188000E056F34F09940895589AB6C0599AD0C0BB
:101890005A9A08955B9A08955C9A08955D9A0895FE
:1018A0005E9A08955F9A0895709A0895719A0895BE
:1018B000409A0895419A0895429A0895439A089546
:1018C000449AC8C0459AC0C0469AB8C0479A08957D
:1018D000769A0895779A0895289A0895299A0895EE
:1018E0002A9A08952B9A08952C9A9CC02D9A88C004
:1018F0002E9A8CC02F9A90C0109A0895119A08952C
:10190000129A0895139A0895149A0895159A0895AD
:10191000169A0895179A0895749A0895759A0895D5
:10192000889A0895899A08958A9A08958B9A0895B5
:101930008C9A08958D9A08958E9A08958F9A089595
:1019400058985AC0599874C05A9808955B98089549
:101950005C9808955D9808955E9808955F9808953D
:101960007098089571980895409808954198089541
:10197000429808954398089544986CC0459864C06F
:1019800046985CC04798089576980895779808958A
:1019900028980895299808952A9808952B980895CD
:1019A0002C9840C02D982CC02E9830C02F9834C051
:1019B000109808951198089512980895139808950D
:1019C00014980895159808951698089517980895ED
:1019D0007498089575980895889808958998089539
:1019E0008A9808958B9808958C9808958D980895F5
:1019F0008E9808958F980895E4B5EF7DE4BD08951D
:101A0000E0918000EF77E09380000895E0918000FE
:101A1000EF7DE09380000895E0918000E77FE09300
:101A200080000895E091B000EF77E093B000089552
:101A3000E091B000EF7DE093B0000895E091900058
:101A4000EF77E09390000895E0919000EF7DE093B0
:101A500090000895E0919000E77FE0939000089552
:101A6000F89484B7877F84BF809160008061809301
:101A700060001092600080E29EE40197F1F781E03F
:101A80008093E00080E28093D80080E69AEE019790
:101A9000F1F795DE0C9400FEFFCFF89490DE80E61F
:101AA0009AEE0197F1F70C940000FFCF8F938FB758
:101AB0008F93809105038D5F8D37D0F4809305035C
:101AC000809106038F5F80930603D8F0809107030F
:101AD0008F4F80930703A8F0809108038F4F809366
:101AE000080378F0809109038F4F8093090309C0A0
:101AF0008D5780930503809106038E5F80930603C4
:101B000028F780910A038C5F80930A0358F0809134
:101B10000B038F4F80930B0328F080910C038F4FA2
:101B200080930C038F918FBF8F911895CF92DF9286
:101B3000EF92FF926B017C0119D09B01C114D1047B
:101B4000E104F10429F4FF90EF90DF90CF90089525
:101B50000DD0621B730B683E734080F381E0C81A9E
:101B6000D108E108F10828513C4FE8CF0FB6F894AE
:101B700066B515B270910A0380910B0390910C0326
:101B80000FBE10FE05C06F3F19F07C5F8F4F9F4F57
:101B900011240024660F001C660F001C7029089594
:101BA0008091E80080FFFCCF08958091D80087FFE6
:101BB00002C085FF1BC081E88093D70080EA809334
:101BC000D80086E189BD09B400FEFDCF80E980938D
:101BD000D8001092E00010921D0310921C03109286
:101BE0001B031092E1008DE08093E20008951F92A4
:101BF0000F920FB60F9211240BB60F922F933F93B3
:101C00004F935F936F937F938F939F93AF93BF9304
:101C1000EF93FF939091E1001092E10093FF11C0C8
:101C20001092E90081E08093EB001092EC0082E2D8
:101C30008093ED0088E08093F00010921D031092D5
:101C40001B0392FF1DC080911D038823C9F0809162
:101C50001003882359F0815080931003811106C02E
:101C600084E08093E9008AE38093E80080910F0389
:101C7000882331F0815080930F03811101C0F0DE81
:101C800090FF0CC080E18093E20010921D0381E080
:101C900080931C0380EA8093D80019BC80911C03B8
:101CA000882379F094FF0DC086E189BD09B400FE58
:101CB000FDCF80E98093D8008DE08093E200109200
:101CC0001C03FF91EF91BF91AF919F918F917F91F5
:101CD0006F915F914F913F912F910F900BBE0F909D
:101CE0000FBE0F901F9018951F920F920FB60F9274
:101CF00011240BB60F92EF92FF920F931F932F9325
:101D00003F934F935F936F937F938F939F93AF9383
:101D1000BF93CF93DF93EF93FF931092E9008091ED
:101D2000E80083FF20C0D091F100C091F100E09065
:101D3000F100F090F1000091F1001091F10020917C
:101D4000F1003091F10082EF8093E800C63009F095
:101D50005BC0E4EFF0E085919591E816F90639F063
:101D60003596C150C1F781E28093EB002BC085917D
:101D700095910817190711F03396F3CF45915591B6
:101D800084912F3F310519F010F02FEF30E08217CA
:101D900008F4282F3EEF8091E800982F9570D9F332
:101DA00082FD10C0822F213208F080E2982F91111D
:101DB00024C0922F981B892F3093E80091111BC0EB
:101DC0002032C8F4FF91EF91DF91CF91BF91AF9195
:101DD0009F918F917F916F915F914F913F912F9143
:101DE0001F910F91FF90EF900F900BBE0F900FBEC1
:101DF0000F901F901895282FCECFFA014591409350
:101E0000F100AF019150D3CFC53049F48EEF8093EC
:101E1000E800C6DE8E2D80688093E300D3CFC93002
:101E200021F5D111A0CFE0921D0310921B03109257
:101E300010038EEF8093E80081E0E7EBF1E0809300
:101E4000E90095919093EB00992331F0959190934F
:101E5000EC0095919093ED008F5F853081F78EE1D6
:101E60008093EA001092EA00ADCFC83061F4D03818
:101E700009F079CF95DE80911D038093F1008EEFFC
:101E80008093E8009FCFC13279F4D13A09F06BCF4B
:101E900087DEEFECF1E080818093F100319681E004
:101EA000E63DF807C1F7EBCFC03209F047C0D132A9
:101EB00009F059CF8091E80082FFFCCFEFECF1E010
:101EC0008091F1008083319691E0E63DF907C1F7FA
:101ED0008BEF8093E8008EEF8093E8003091CF0184
:101EE0004091D0018091D1012091D20190E0B0E0E9
:101EF000A0E0DC0199278827942B832BB22B86380E
:101F00009105A105B10521F48FE080930F035ACF0D
:101F100086399105A105B10509F054CF84E080937D
:101F2000E9009FEF8091EE00837009F4B6DD909395
:101F3000E8008091E80082FDFCCFF4CFC23239F492
:101F4000D13209F010CFE0921B032ADE98CFC332C2
:101F500021F4D13209F007CFF8CFC11111C020DE32
:101F6000D23849F40093E900C091EB00C5FBCC27BF
:101F7000C0F91092E900C093F1001092F1007FCFF8
:101F80008C2F8D7F813009F0EECED23009F0EBCE70
:101F9000EF2809F0E8CE0F778FEF800F863008F03A
:101FA000E2CE8EEF8093E8000093E900C33009F49D
:101FB000DACE89E18093EB0081E090E001C0880FE8
:101FC0000A95EAF74DCFFC018FB7F89490911D0365
:101FD00091110CC090E08FBF2085318537FD03C083
:101FE0009F3F09F09F5F892F90E0089593E09093C1
:101FF000E9009091F2009111EECF2091E80022FFCC
:10200000E9CF25FDE7CF2BE62093E800E4CFCF937F
:10201000DF93EC018885998597FF09C0E881F981F4
:102020000284F385E02DCE010995998788878885FC
:102030009985DF91CF910895FC012085318537FD89
:1020400007C04FEF5FEF51874087C9019927089577
:102050009FB7F89480911D03811104C09FBF8FEF3B
:102060009FEF089583E08093E9002BE68091E800DC
:1020700085FD05C082FFF2CF2093E800F7CF809165
:10208000F1002091E80025FD03C02BE62093E80035
:102090009FBF90E0089580911D03882361F08FB762
:1020A000F89494E09093E9009091F2008FBF80E45F
:1020B000891B90E0089590E080E00895BF92CF9250
:1020C000DF92EF92FF920F931F93CF93DF937C01E8
:1020D00080911D03811110C081E0F701828310E01F
:1020E00000E0C801DF91CF911F910F91FF90EF9019
:1020F000DF90CF90BF9008952FB7F89484E080933D
:10210000E90080910E03882341F08091E80085FD6D
:1021100002C02FBFE1CF10920E0310E000E084E078
:10212000D82E90E4C92EA1EFB0E03AE3B32E33E00D
:102130004115510509F4C0C08091E400815F909180
:10214000E80095FD16C02FBF9091E400891306C0EA
:1021500081E080930E03F7018283C3CF90911D032A
:10216000911102C081E0F7CF2FB7F894D092E90027
:10217000E6CF8091F2009C2D981B9417150611F064
:1021800008F0942FE92FF0E04E1B5F0B0E0F1F1F7E
:10219000EB01E0E4E91BE03428F4EE0FFF27ED52F9
:1021A000FF4E099480C099919C9399919C93999129
:1021B0009C9399919C9399919C9399919C939991BB
:1021C0009C9399919C9399919C9399919C939991AB
:1021D0009C9399919C9399919C9399919C9399919B
:1021E0009C9399919C9399919C9399919C9399918B
:1021F0009C9399919C9399919C9399919C9399917B
:102200009C9399919C9399919C9399919C9399916A
:102210009C9399919C9399919C9399919C9399915A
:102220009C9399919C9399919C9399919C9399914A
:102230009C9399919C9399919C9399919C9399913A
:102240009C9399919C9399919C9399919C9399912A
:102250009C9399919C9399919C9399919C9399911A
:102260009C9399919C9399919C9399919C9399910A
:102270009C9399919C9399919C9399919C939991FA
:102280009C9399919C9399919C9399919C939991EA
:102290009C9399919C9399919C9399919C939991DA
:1022A0009C9399919C93BE018091E80085FFB09228
:1022B000E800309310033CCF2FBF13CF2FEF3FEF39
:1022C000FC013187208771DC0FB6F89480910603FA
:1022D00090910703A0910803B09109030FBE9C01E0
:1022E00080911D03882329F068EC70E080E090E085
:1022F0001DCC80911C03882301F10FB6F894409106
:1023000006035091070360910803709109030FBE03
:1023100080911C03882389F00FB6F89480910603FE
:1023200090910703A0910803B09109030FBE841B8D
:10233000950B8B3F910560F308950FB6F89480914B
:10234000060390910703A0910803B09109030FBE03
:10235000821B930B853C994008F4C2CF08958F925D
:102360009F92AF92BF92CF92DF92EF92FF920F9324
:102370001F93CF93DF93EC010FB6F894C090060340
:10238000D0900703E0900803F09009030FBE4115B9
:10239000510529F18885998597FD11C0FB0180833E
:1023A0008FEF9FEF99878887415051096F5F7F4F6B
:1023B00091E04115510521F441E050E010C090E05A
:1023C00080E0FA01492F582F13E00BE68FB7F894FD
:1023D00090911D03911111C08FBF81E08F83CA01BD
:1023E000DF91CF911F910F91FF90EF90DF90CF90F1
:1023F000BF90AF909F908F9008951093E9009091B7
:10240000E80092FFE9CF2091F2002E171F0611F08D
:1024100008F02E2F362FDB019A2F931B921720F4F2
:102420009091F1009D93F8CF30E0620F731F90916F
:10243000E80095FF0093E8008FBF420F531FE21B97
:10244000F30B69F20FB6F89480910603909107039D
:10245000A0910803B09109030FBE8C199D09AE0924
:10246000BF098B809C80AD80BE8088159905AA0528
:10247000BB0508F4ABCFB1CF8FB7F89490911D0393
:10248000992361F090911003992341F094E0909387
:10249000E9009AE39093E800109210038FBF08952B
:1024A000EBCF80911D03882329F090911B0393703B
:1024B00081E009F480E00895E1E1F3E011861086FF
:1024C000128288EE93E0A0E0B0E083839483A5833A
:1024D000B683178288E792E0918380830895A1E212
:1024E0001A2EAA1BBB1BFD010DC0AA1FBB1FEE1F8E
:1024F000FF1FA217B307E407F50720F0A21BB30BD9
:10250000E40BF50B661F771F881F991F1A9469F754
:1025100060957095809590959B01AC01BD01CF01B0
:102520000895052E97FB16F400940FD057FD05D0A3
:10253000D6DF07FC02D046F408C050954095309590
:1025400021953F4F4F4F5F4F08959095809570951F
:1025500061957F4F8F4F9F4F0895EE0FFF1F00240F
:10256000001C0BBE0790F691E02D099409D0A59FA1
:10257000900DB49F900DA49F800D911D112408957E
:10258000A29FB001B39FC001A39F700D811D1124B4
:10259000911DB29F700D811D1124911D08958F9280
:1025A0009F92AF92BF92CF92DF92EF92FF92CF9322
:1025B000DF93EC01688179818A819B8161157105C6
:1025C0008105910521F464E279ED8BE597E02DE139
:1025D00033EF41E050E0A5DF49015A019B01AC0116
:1025E000A7EAB1E4C3DF6B017C01ACEEB4EFA50157
:1025F000940175D0C60ED71EE81EF91EF7FE06C060
:1026000081E0C81AD108E10880E8F80AC882D982B6
:10261000EA82FB82C701B6019F77DF91CF91FF90DD
:10262000EF90DF90CF90BF90AF909F908F900895E4
:102630008F929F92AF92BF92CF92DF92EF92FF92D2
:10264000609100017091010180910201909103015C
:10265000611571058105910521F464E279ED8BE541
:1026600097E02DE133EF41E050E05BDF49015A0193
:102670009B01AC01A7EAB1E479DF6B017C01ACEE10
:10268000B4EFA50194012BD0C60ED71EE81EF91E8B
:10269000F7FE06C081E0C81AD108E10880E8F80A10
:1026A000C0920001D0920101E0920201F092030178
:1026B000C701B6019F77FF90EF90DF90CF90BF905A
:1026C000AF909F908F9008956093000170930101E7
:1026D00080930201909303010895B7FF47CF46DF2F
:0A26E000821B930B0895F894FFCFBE
:1026EA000100000000FBC013BFE607C0BFEC07C033
:1026FA00BFEE07CFEB07ECF5EA07FCB2FF0E72FC60
:10270A00B2FF0E76FCB2FF0E77FCB2FF0E9EFDFC06
:10271A00B2FF0E73624C69DD6D4C77DD1D4C72DDC4
:10272A00294C65DD324C75DD62FCA1FF0ED5EA0746
:10273A00DFC8AFE60712ECEB070FFCB2FF0E119BE6
:10274A00A793DFF6FE4C00EEE3FF118BFCA1FF0E10
:10275A00A793DFF6EED6FF61FFFCF8FF0E8F0208A3
:10276A004C0FDD0B624CFFDF11FCC4080FEFF56262
:10277A004CFFDF06FC04F00EEFF5C361CFC262FC2A
:10278A00A1FF0EEEA7FFE5EA07EF03E5EA07FE025F
:10279A0000EF9A5100FCA1FF0ED7FFFFFFFFFFFFDA
:1027AA00FFFFFFFFFFFFFFE00704EC00FB0FFF0046
:1027BA00E10000000008750000000000650000004C
:1027CA0000006900000000007700FC0F010100779B
:1027DA00E2FE0F0100007703080F010000770408EA
:1027EA000F0200FC007700080F0800000000000438
:1027FA00007700080F080300000000FC02000077C1
:10280A0000080F080400000000000100007700FC27
:10281A000F00007700FD0F00000000FC00020077A7
:10282A0001080F01010077E2FE0F01030077E2FEC3
:10283A000F01080077E2FE0F01090077E2FE0F019F
:10284A00040000000000FB09100BBB09F609AB09E4
:10285A00DE09CB09000000000E015E104B10501279
:06286A00E30F1C10071033
:00000001FF
